:100000000C94782C0C94A92C0C94A92C0C94A92C4D
:100010000C94A92C0C94A92C0C94A92C0C94A92C0C
:100020000C94A92C0C94A92C0C94A92C0C94A92CFC
:100030000C94A92C0C94748E0C94A92C0C94A92CBF
:100040000C94A92C0C948E500C94A92C0C94A92CD3
:100050000C94A92C0C94A92C0C94EBC60C943ADCAF
:100060000C94A92C0C94C1C60C9491C60C94A92C88
:100070000C94A92C0C94A92C0C94A92C0C94A92CAC
:100080000C94A92C0C94A92C0C94A92C0C94A92C9C
:100090000C94A92C0C94A92C0C94A92C0C94A92C8C
:1000A0000C94A92C0C94A92C0C94A92C0C94A92C7C
:1000B0000C94A92C0C94A92C0C94A92C0C94A92C6C
:1000C0000C94A92C0C94A92C0C94A92C0C94A92C5C
:1000D0000C94A92C0C94A92C0C94A92C0C94A92C4C
:1000E0000C94A92C8D3092309730A330AF303C3136
:1000F000BB30C330CB30D730E330EF3000310C3180
:100100003C311831243130317D829682968296823C
:10011000968296829682968296829682968296821F
:10012000968296829682968296829682968296820F
:100130009682968296823F824A8229821E82C88156
:10014000D38140813482FD81088255826082518151
:100150002D816B82F28196821382E781DE81968205
:1001600096829682A781B281BD819682968296827E
:100170009682968296823F824A8229821E82C88116
:10018000D38140813482FD81088255826082518111
:100190002D816B82F28196821382E781DE819682C5
:1001A00096829682A781B281BD8143BEBABE7DBED2
:1001B00074BE87BE8DBEADBEA7D8AAD899D89DD82B
:1001C000A3D8E1D8AED8B2D8B8D8BCD8C0D8C6D891
:1001D000CAD8CED8E1D8D4D8D8D8DCD8084AD73BAA
:1001E0003BCE016E84BCBFFDC12F3D6C74319ABD06
:1001F00056833DDA3D00C77F11BED9E4BB4C3E912A
:100200006BAAAABE000000803F05A84CCDB2D44E18
:10021000B93836A9020C50B9918688083CA6AAAA1A
:100220002ABE000000803F000C94B2D80C94F281EA
:100230000C94D8D80C940C310C9408820C9419C0EE
:100240000C94A6BC0C94C0D80C9430310C949DD85E
:100250000C942CBE0C9424310C9400310C947D82AF
:100260000C94A3D80C94B4BC0C94E3300C947DBED5
:100270000C9460820C9413820C94E7810C9440815E
:100280000C943C310C94B2810C94D4D80C94CAD800
:100290000C94038E0C94ADBE0C9463BC0C94EBBF19
:1002A0000C94BD810C948D300C94CB300C94BABE60
:1002B0000C94E1D80C942D810C9451810C943F82C4
:1002C0000C9492300C9427C00C94D3810C94BB30C6
:1002D0000C94CED80C9443BE0C9497300C94DE81D1
:1002E0000C945FE50C9487BE0C94DCD80C948DBE06
:1002F0000C94AED80C9474BE0C9455820C94AF3010
:100300000C9455C00C94C6D80C944A820C94FD8170
:100310000C94A3300C94C8810C946B820C9496823C
:100320000C94B8D80C94EF300C94C3300C94D730A4
:100330000C94BCD80C9434820C9418310C9499D839
:100340000C94AAD80C941E820C94A7D80C9440C08C
:100350000C9429820C94A781456E642066696C65B3
:10036000206C69737400426567696E2066696C650C
:10037000206C697374005344207072696E74696EE6
:1003800067206279746520004E6F7420534420709A
:1003900072696E74696E670057726974696E67205E
:1003A000746F2066696C653A20006F70656E206618
:1003B00061696C65642C2046696C653A2000437263
:1003C000656174696F6E206661696C65640044697B
:1003D000726563746F72792063726561746564001D
:1003E000657874727564657220636F6F6C657220D6
:1003F0007370656564205B302D3235355D0064694E
:100400007374616E636520746F20726574726163CA
:1004100074207768656E2068656174696E67205B1B
:100420006D6D5D0074656D702E20666F7220726553
:100430007472616374696F6E207768656E20686599
:100440006174696E67205B435D0074656D702E207A
:1004500073746162696C697A652074696D65205B8B
:10046000735D005A2D6F6666736574205B737465E7
:1004700070735D00592D6F6666736574205B7374CD
:100480006570735D00582D6F6666736574205B73CD
:10049000746570735D00504944206D617820766109
:1004A0006C7565205B302D3235355D005049442038
:1004B000442D6761696E0050494420492D67616988
:1004C0006E0050494420502D6761696E2F6465614C
:1004D000642D74696D6500504944206472697665C5
:1004E000206D696E00504944206472697665206D04
:1004F00061780068656174206D616E616765722066
:100500005B302D335D00616363656C657261746996
:100510006F6E205B6D6D2F735E325D007374617260
:1005200074206665656472617465205B6D6D2F7300
:100530005D006D61782E206665656472617465206A
:100540005B6D6D2F735D00737465707320706572E1
:10055000206D6D0052657472616374696F6E2075F1
:100560006E646F20737065656400457874726120F5
:10057000657874727573696F6E206F6E20756E6426
:100580006F2072657472616374205B6D6D5D0052E3
:10059000657472616374696F6E207A2D6C6966741C
:1005A000205B6D6D5D0052657472616374696F6E7E
:1005B000207370656564205B6D6D2F735D005265FF
:1005C0007472616374696F6E206C656E6774682005
:1005D0005B6D6D5D00456E61626C65207265747265
:1005E000616374696F6E20636F6E76657273696F95
:1005F0006E205B302F315D004265642050494420FD
:100600006D61782076616C7565205B302D323535F3
:100610005D004265642050494420442D6761696E45
:10062000004265642050494420492D6761696E008D
:100630004265642050494420502D6761696E004234
:10064000656420504944206472697665206D696E46
:100650000042656420504944206472697665206DCB
:100660006178004265642048656174204D616E6167
:10067000676572205B302D335D004175746F6C656A
:1006800076656C206163746976652028312F302986
:1006900000436F6174696E6720746869636B6E658F
:1006A0007373205B6D6D5D005A2D617869732074E2
:1006B000726176656C20616363656C6572617469F3
:1006C0006F6E205B6D6D2F735E325D00592D61780A
:1006D00069732074726176656C20616363656C6513
:1006E000726174696F6E205B6D6D2F735E325D0099
:1006F000582D617869732074726176656C2061632E
:1007000063656C65726174696F6E205B6D6D2F73CC
:100710005E325D005A2D6178697320616363656C98
:1007200065726174696F6E205B6D6D2F735E325DF3
:1007300000592D6178697320616363656C6572612E
:1007400074696F6E205B6D6D2F735E325D00582D86
:100750006178697320616363656C65726174696F48
:100760006E205B6D6D2F735E325D005A206D617877
:10077000206C656E677468205B6D6D5D0059206D3F
:100780006178206C656E677468205B6D6D5D0058E4
:10079000206D6178206C656E677468205B6D6D5D9F
:1007A000005A206D696E20706F73205B6D6D5D0067
:1007B00059206D696E20706F73205B6D6D5D005800
:1007C000206D696E20706F73205B6D6D5D004D61F3
:1007D000782E205A2D6A65726B205B6D6D2F735DCC
:1007E000004D61782E206A65726B205B6D6D2F73F2
:1007F0005D005A2D6178697320686F6D696E67209E
:100800006665656472617465205B6D6D2F735D0054
:10081000592D6178697320686F6D696E6720666510
:10082000656472617465205B6D6D2F735D00582D7A
:100830006178697320686F6D696E672066656564AD
:1008400072617465205B6D6D2F735D005A2D617848
:100850006973206D61782E206665656472617465C8
:10086000205B6D6D2F735D00592D61786973206D6C
:1008700061782E206665656472617465205B6D6DBC
:100880002F735D00582D61786973206D61782E207B
:100890006665656472617465205B6D6D2F735D00C4
:1008A0005A2D617869732073746570732070657256
:1008B000206D6D00592D61786973207374657073B4
:1008C00020706572206D6D00582D617869732073FA
:1008D0007465707320706572206D6D0053746F7055
:1008E000207374657070657220616674657220692A
:1008F0006E6163746976697479205B6D732C303D29
:100900006F66665D004D61782E20696E6163746963
:1009100076652074696D65205B6D732C303D6F6664
:10092000665D005072696E746572206163746976E9
:1009300065205B735D0046696C616D656E74207047
:1009400072696E746564205B6D5D004261756472EE
:10095000617465004C616E6775616765005049445C
:10096000204175746F74756E65206661696C65648D
:10097000212074696D656F7574005049442041757C
:10098000746F74756E65206661696C6564212054AE
:10099000656D706572617475726520746F6F206823
:1009A00069676800204B643A2000204B693A2000B8
:1009B000204B703A200020436C61737369632050B0
:1009C0004944002054753A2000204B753A200020FD
:1009D0006D61783A2000206D696E3A200020643AFB
:1009E000200020626961733A20005049442041751B
:1009F000746F74756E65207374617274004E6F202D
:100A000063617365206C6967687473004D61785425
:100A1000656D703A004469616D657465723A0041B4
:100A20006363656C65726174696F6E3A004D6178DD
:100A300053706565643A004A65726B3A004D61789F
:100A400042656454656D703A005072696E746572E7
:100A5000547970653A43617274657369616E005AC6
:100A600054726176656C416363656C3A00595472E7
:100A70006176656C416363656C3A005854726176C7
:100A8000656C416363656C3A005A5072696E7441DB
:100A90006363656C3A00595072696E7441636365B3
:100AA0006C3A00585072696E74416363656C3A0029
:100AB0005A53697A653A005953697A653A0058532E
:100AC000697A653A005A4D61783A00594D61783A31
:100AD00000584D61783A005A4D696E3A00594D6997
:100AE0006E3A00584D696E3A0052657472616374D3
:100AF000696F6E556E646F53706565643A00526538
:100B00007472616374696F6E556E646F4578747248
:100B1000614C6F6E674C656E6774683A005265741D
:100B200072616374696F6E556E646F45787472613B
:100B30004C656E6774683A005265747261637469DB
:100B40006F6E5A4C6966743A0052657472616374D0
:100B5000696F6E53706565643A00526574726163C3
:100B600074696F6E4C6F6E674C656E6774683A009F
:100B700052657472616374696F6E4C656E677468F8
:100B80003A004A65726B5A3A004A65726B58593A94
:100B9000005072696E746C696E6543616368653A92
:100BA00000454550524F4D3A004175746F6C657663
:100BB000656C3A005A50726F62653A004361736522
:100BC0004C69676874733A00537570706F72744C37
:100BD0006F63616C46696C616D656E746368616EAC
:100BE00067653A00537570706F72744731304731E2
:100BF000313A005A486F6D654469723A0059486F3E
:100C00006D654469723A0058486F6D654469723A7F
:100C100000536F667477617265506F7765725377B2
:100C2000697463683A004C43443A0046616E323A54
:100C3000300046616E3A005344436172643A0048A2
:100C400065617465644265643A004D6978696E67F0
:100C500045787472756465723A004E756D457874A6
:100C600072756465723A00496E7075744275666695
:100C700065723A0042617564726174653A00436F4F
:100C80006E66696775726174696F6E2072657365EF
:100C90007420746F2064656661756C74732E0069CE
:100CA0006E666F3A436F6E74696E75652066726F1B
:100CB0006D20666174616C2073746174650000540A
:100CC000657374696E6720666174616C2065727209
:100CD0006F72004A616D20646562756767696E674F
:100CE0003A00436F6E66696775726174696F6E2052
:100CF0006C6F616465642066726F6D20454550526B
:100D00004F4D2E00436F6E66696775726174696F2F
:100D10006E2073746F72656420746F204545505265
:100D20004F4D2E00536574204D6963726F73746567
:100D30007070696E6700436F6C64206578747275BB
:100D400073696F6E20646973616C6C6F77656400A2
:100D5000436F6C6420657874727573696F6E20617F
:100D60006C6C6F7765640054726967676572696E51
:100D700067207761746368646F672E20496620611D
:100D800063746976617465642C2074686520707280
:100D9000696E7465722077696C6C20726573657416
:100DA0002E005761746368646F67206469736162C1
:100DB0006C6564004175746F726574726163743A36
:100DC00000205A4A65726B3A004A65726B3A0020FD
:100DD000746F200053657420766F6C756D65747246
:100DE000696320657874727573696F6E20666F72BF
:100DF000206578747275646572200044697361625D
:100E00006C656420766F6C756D65747269632065BE
:100E10007874727573696F6E20666F72206578746E
:100E2000727564657220004D31313420004649529C
:100E30004D574152455F4E414D453A52657065747C
:100E40006965725F302E39322E39204649524D572E
:100E50004152455F55524C3A68747470733A2F2F63
:100E60006769746875622E636F6D2F726570657443
:100E70006965722F52657065746965722D46697275
:100E80006D776172652F2050524F544F434F4C5F26
:100E900056455253494F4E3A312E30204D4143482A
:100EA000494E455F545950453A436F72655F5859F2
:100EB0002045585452554445525F434F554E543A7D
:100EC000312052455045544945525F50524F544F7E
:100ED000434F4C3A330050696E2063616E206E6F51
:100EE0007420626520736574206279204D34322C41
:100EF00020697320696E2073656E73697469766505
:100F00002070696E732120002069732000496C6C89
:100F10006567616C20532076616C756520666F7221
:100F2000204D34320020746F2000536574206F759B
:100F3000747075743A2000000136372603023C3D78
:100F4000380E0F2E303E12130D0C0A081A1C180D05
:100F50000E350000000000000089000000000000C5
:100F60000000880000000000000000860000000073
:100F70000000000085005B0F520F6D0F640F456E7F
:100F8000676C697368000358040200760F0320043D
:100F900002007A0F000004260440009600000004BE
:100FA0002204400095000000044C040000BB000037
:100FB00000044D040000BC000000042E040000905A
:100FC000000000042A0400008F000000042B04002D
:100FD000008E000000042C0400008D000000042995
:100FE0000400008C00000004130400005500000001
:100FF0000412040000540000000411040000530017
:101000000000041604000051000000041504000054
:101010005000000004140400004F000000040F04FE
:10102000000038000000040E040000370000000437
:101030000D04000035000000040C04000034000022
:1010400000040B04000033000000040A0400003117
:10105000000000040904000030000000040804003F
:10106000002F007E0F03A42600000000000003B242
:10107000040000D000000002860F0000870000007E
:10108000028D0F00008400000004100400008B009B
:101090001715DC0FD30FCA0FC10FB80FAF0FA60F74
:1010A00082127912701267125E1255129D0F940F00
:1010B0004C121715121009100010F70FEE0FE50F64
:1010C00017155A10511048103F1036102D102410CB
:1010D0001B1017156310171587107E1075106C10F4
:1010E000020000110090100200000700B210020080
:1010F000000900C0100200000200D210020000052A
:1011000000D610000003070400003B0000000306A7
:101110000400003A00000002E01000000F00000090
:1011200002E71000004E00000002EE10000039003F
:10113000000002F5100000E400000002FC100000B6
:101140008A00000003820400000A010000038104F9
:1011500000003F00000003800400003E0000000388
:101160007F0400003D000000037E0400003C0000FE
:101170000003B4040000D2000000031E040000833A
:10118000000000031D04000082000000031C040096
:101190000081000000031B04000080000000031A0F
:1011A0000408007F00000004520400007E000000DC
:1011B00004B60F00000901000004B50F000008018B
:1011C000000004B40F000007010000000000000050
:1011D000F20000000000000000AB00000000000072
:1011E00000007000000000000000006F000000031D
:1011F000542402000300000003E803000004000080
:10120000000100000000C900171539113011271125
:101210001E111511EA150C110311171566115D1138
:1012200054114B1142111715A5119C1193118A11DC
:10123000811178116F111715C011B711AE11E4119A
:10124000DB11D211C911FF11F611ED110000042FAD
:101250000400009B00000004260420009A00000007
:1012600004250420009900000004240420009800B4
:101270000000042304200097000000042204200042
:1012800094000000042D04000093000200000900F7
:10129000081202000006001A1202000008002612BE
:1012A0000200000400361203F00304003E120200A4
:1012B0000003004612171582127912701267125E2F
:1012C0001255124C120000028B1200000D0000009B
:1012D00002921200001100000002C7160000100068
:1012E000000002991200007D000000028F1600002D
:1012F0000F00000002881600000E00000002961683
:1013000000000B0000000000000000CF0000000003
:1013100000000000CE0000000000000000CD000032
:10132000000000000000CC00000002A01200000637
:1013300001000002B216000021000000029D16000C
:10134000002200000002B91600001F00000002A4E5
:101350001600002000000002C01600001D00000062
:1013600002AB1600001E000000030004001016006F
:10137000000003FF0300101500000003FE0300102F
:101380001400000003440400002E00000002A71215
:10139000000023000000033A0400002800000004BD
:1013A0006204000025000000046104000024000025
:1013B000000336040000C600000003430400101CB4
:1013C00000000003310400101B000000033804007B
:1013D000001A000000034704000018000000033753
:1013E000040000170000000388130000CB00000079
:1013F0000448040000B1000000041F040000B00015
:1014000000000457040000CA00000003FD030010A0
:101410001300000000000000006E0000000000004B
:1014200000006D00000000000000006C00000000E3
:10143000000000006B00000000000000006A0000D7
:1014400000000000000069000000000000000068CB
:101450000000000000000000670000000000000025
:1014600000660000000000000000650000000000B1
:1014700000000064000000000000000063000000A5
:101480000000000000620000000000000000610099
:1014900000000000000000600000000000000000EC
:1014A0005F00000000000000005E0000000000007F
:1014B00000005D00000000000000005C0000000073
:1014C000000000005B00000000000000005A000067
:1014D000000000000000590000000000000000585B
:1014E00000000000000000005700000003F40301AA
:1014F000024D00000002AE120200C900000003F716
:101500000304004A00000003F6030204490000003F
:1015100003F50301024800000003E80300000A008D
:1015200000000000000000A8000000000000000013
:10153000A70000000000000000A60000000000005E
:101540000000A5000200000800B5121715FB120EDE
:1015500015F212E912E012D712CE12C5121F13169D
:10156000130D130413171509147913701367135E01
:101570001355134C1343133A1331138B13281317BA
:1015800015A6139D1394138B1382131715091400BA
:1015900014F713EE13E513DC13D313CA13C113B8F6
:1015A00013AF132D1424141B141214511448143F98
:1015B00014361475146C1463145A14991490148707
:1015C000147E14BD14B414AB14A214E114D814CFB7
:1015D00014C61417150E150515FC14F314EA141788
:1015E00015291520153B1532150000000244150081
:1015F00000A2002F2F20616374696F6E3A726573C9
:10160000756D650044656C6574696F6E206661690F
:101610006C65640046696C652064656C657465641E
:101620000002000009004B15526571756573745016
:10163000617573653A0005881304005D152F2F202E
:10164000616374696F6E3A706175736500696D707E
:101650006F7274616E743A2046696C616D656E7468
:10166000206368616E676520726571756972656473
:1016700021004A616D20636F6E74726F6C20646923
:101680007361626C65643A000200000D006515022A
:10169000000006007F150200000C008B1503FC0300
:1016A0000400A31503FB030400AB1503FA030400B5
:1016B000B31503EF030400BB1503EE030400C315C9
:1016C00003ED030400CB150200000600D315010052
:1016D000000100DF150310270200E11503102702A7
:1016E00000E51555495F414354494F4E5F484F4D02
:1016F000455F5A200055495F414354494F4E5F486A
:101700004F4D455F59200055495F414354494F4E65
:101710005F484F4D455F58200055495F414354494C
:101720004F4E5F484F4D45414C4C20000400501D2A
:101730007C00D009A4001009CC008008F400100837
:101740001C01B807440168076C0128079401E806EA
:10175000BC01B806E40188060C02600634023806B3
:101760005C0218068402F005AC02D805D402B80564
:10177000FC0298052403800574035005C403280562
:10178000140400056404D804B404B0042C058004D7
:10179000A40558041C062804940600040C07D8036A
:1017A000AC07A8034C087803EC0848038C09200315
:1017B000A40AD0021C0BA802AC0C2802FC0C0802E4
:1017C000C40DB801140E9801B40E38012C0FE000BE
:1017D000540FB8007C0F8800A40F4800F40F28FFB6
:1017E000FC0FC0F9000000008C030800AE0350009D
:1017F000D603A000F703F00018044001380490015C
:101800005904E0017A0430029A048002BB04D00239
:10181000FC0470032605C003860630079709A00F55
:10182000750D201C520E401F1F0F6022FF0F803EBF
:101830000400081D900058091C01B007A801C80643
:1018400034023006C002C0054C036805D8031805F1
:101850006404D004F00498047C0560040806300495
:10186000940600042007D003AC07A80338088003BF
:10187000C408580350093003DC090803680AD80279
:10188000F40AB002800B88020C0C6002980C300243
:10189000240DF801B00DC0013C0E8001C80E3001CE
:1018A000540FB800B40F2800E00F00000400401DE2
:1018B000900060091C01B007A801D0063402380668
:1018C000C002C8054C036805D80318056404D80491
:1018D000F00498047C0560040806300494060004B3
:1018E0002007D003AC07A80338088003C4085803B6
:1018F00050093003DC090803680AE002F40AB80260
:10190000800B88020C0C6002980C3002240DF80148
:10191000B00DC0013C0E8001C80E3001540FB8005C
:10192000B40F2800E00F000004000016D800C00625
:10193000AC0178058002C004540348042804E8037D
:10194000FC049803D0055003A40618037807D802B6
:101950004C08A80220097002F4093802C80A0802DB
:101960009C0BD001700C9001440D5001180EF80032
:10197000EC0E8800C00F00000400681D4C00500BE6
:1019800094005809DC0050082401A8076C012807BE
:10199000B401C006FC017006440228068C02F00562
:1019A000D402B8051C03880564035805AC03300550
:1019B000F40310053C04E8048404C804CC04A8041F
:1019C000140590045C057004A4055804EC05380463
:1019D000340620047C060804C406F0030C07D80370
:1019E0005407C8039C07B003E40798032C0880033E
:1019F00074087003BC085803040948034C093003F9
:101A000094091803DC090803240AF0026C0AE002B6
:101A1000B40AC802FC0AB002440BA0028C0B880274
:101A2000D40B70021C0C5802640C4002AC0C28024F
:101A3000F40C10023C0DF001840DD801CC0DB8015E
:101A4000140E98015C0E7001A40E4801EC0E1801F2
:101A5000340FD8007C0F8800C40F0800FC0F000072
:101A60000000000000000000000000000000000076
:101A70000000000000000000000000000000000066
:101A8000000000000000401F450060094F001009E1
:101A90005C00C0086B0070087D0020089200D00731
:101AA000AC008007CC003007DE00E0062301900682
:101AB0005E014006A601F005FF01A0056D0250057C
:101AC000F30200059603B0045A04600440051004B4
:101AD0004806C0036E077003A8082003EB09D00274
:101AE000230B8002410C3002390DE001040E9001FD
:101AF000A20E4001170FF000690FA000A20F5000C6
:101B0000C60F0000DD0FB0FFEB0F60FF0400700D8B
:101B1000D8004804AC0158038002D8025403800264
:101B200028043802FC040002D005C801A40698016C
:101B3000780770014C08480120091801F409F000E9
:101B4000C80AC8009C0BA000700C7000440D38003F
:101B5000180E0000EC0EA8FFC00FE8FE0400001BEA
:101B600054006009640010097400C0088400700803
:101B70009C002008B800D007D8008007000130077B
:101B80002C01E00668019006AC0140060002F00559
:101B90006802A005E0025005740300052404B004A7
:101BA000F0046004DC051004E406C00304087003BC
:101BB00030092003780B8002600DE001A80E40017F
:101BC000680FA000C00F0000E80F60FF0400801A3B
:101BD000D8009808AC012007800250065403C805BD
:101BE00028045805FC040005D005B004A4066804C8
:101BF000780728044C08E8032009B003F4097003AF
:101C0000C80A38039C0BF802700CB002440D68023D
:101C1000180E0802EC0E8801C00F8800F00F0000BB
:101C20000000A00F5C006009690010097900C0087D
:101C30008C007008A2002008BD00D007DE008007DD
:101C4000050130073401E0066D019006B20140063F
:101C50000702F0056D02A005E80250057B030005B0
:101C60002B04B004F8046004EB06C003350920031C
:101C70007F0B8002650DE001B00E40011D0FF000EA
:101C8000480FC8006C0FA000ED0F60FFFE0F48FE6C
:101C90005461726765744265643A00201CCC1B5C19
:101CA0001B0C1B000000000000841A78192819ACD6
:101CB000183018E4172C171C151C140000002243C0
:101CC000141F1F132E5072696E7465722073657431
:101CD00020696E746F206472792072756E206D6F4A
:101CE000646520756E74696C2072657374617274BA
:101CF0002100206D61726B6564206465636F75708F
:101D00006C656400206D61726B6564206465666556
:101D10006374003A20776F726B696E67003A2074C3
:101D2000656D702073656E736F72206465666563A0
:101D300074004F746865723A006865617465642068
:101D4000626564000000420FA1071605D0030D0371
:101D50008B022E02E801B2018601630145012C01CC
:101D600017010401F4000000000000000000000062
:101D700000000000000024F403D950C38EB1C2A2B9
:101D80003D96828B3582127AE372816CCB66A861B4
:101D9000015DC758EB546151204E1E4B5648C1455A
:101DA00059431A41013F093D2F3B7139CD37403628
:101DB000C93465331432D430A32F802E6B2D632C9D
:101DC000672B752A8E29B028DC2710274B268F25F4
:101DD000D9242B248223E0224322AC211A218D20F6
:101DE0000420801F001F841E0C1E971D261DB81C7A
:101DF0004E1CE61B821B201BC11A641A0A1AB21958
:101E00005D190A19B9186A181C18D11788174017D4
:101E1000FA16B51673163116F115B31576153A156F
:101E20000015C7148F1458142214EE13BA13881314
:101E300056132513F612C71299126C12401215127E
:101E4000EB11C1119811701148112111FB10D6101E
:101E5000B1108D106910461024100210E10FC00F50
:101E6000A00F800F610F420F230F060FE80ECB0E5D
:101E7000AF0E930E770E5C0E410E270E0D0EF30D76
:101E8000DA0DC10DA80D900D780D600D490D320DC4
:101E90001B0D050DEF0CD90CC30CAE0C990C850C69
:101EA000700C5C0C480C350C210C0E0CFB0BE80B79
:101EB000D60BC40BB20BA00B8E0B7D0B6B0B5A0B0E
:101EC0004A0B390B290B180B080BF80AE90AD90A37
:101ED000CA0ABB0AAC0A9D0A8E0A800A710A630A02
:101EE000550A470A390A2C0A1E0A110A040AF70978
:101EF000EA09DD09D009C409B709AB099F099209AC
:101F000087097B096F09630958094C09410936099A
:101F10002B09200915090A090009F508EB08E00852
:101F2000D608CC08C208B808AE08A4089A089008D9
:101F300087087D0874086B08610858084F08460830
:101F40003D0834082C0823081A081208090801085B
:101F5000F807F007E807E007D807D007C807C00769
:101F6000B807B007A807A107802500004038000087
:101F7000004B00008070000000960000C0DA0000F6
:101F800000E10000002C010008B2010000C20100C5
:101F900000F401000084030090D0030000E8030077
:101FA0000008070020A1070000100E0040420F00AB
:101FB00060E316000000000055495F414354494F5B
:101FC0004E5F45504F534954494F4E200055495F8D
:101FD000414354494F4E5F5A504F534954494F4E15
:101FE0005F46415354200055495F414354494F4E89
:101FF0005F59504F534954494F4E5F464153542007
:102000000055495F414354494F4E5F58504F534923
:1020100054494F4E5F46415354200055495F414358
:1020200054494F4E5F5A504F534954494F4E200028
:1020300055495F414354494F4E5F59504F5349549E
:10204000494F4E200055495F414354494F4E5F5818
:10205000504F534954494F4E200020002F006572C5
:10206000726F722077726974696E6720746F206670
:10207000696C6500504944204175746F74756E65D4
:102080002066696E6973686564202120506C616305
:102090006520746865204B702C204B6920616E644C
:1020A000204B6420636F6E7374616E747320696E6D
:1020B0002074686520436F6E666967757261746924
:1020C0006F6E2E68206F7220454550524F4D007C38
:1020D0003C3E5E2B3D3F2F5B5D3B2C2A225C005239
:1020E0006573656E643A006F6B20004D69737369A8
:1020F0006E67206C696E656E756D62657200206733
:102100006F7420004572726F723A657870656374FF
:102110006564206C696E652000736B697020006FC8
:102120006B004563686F3A00446F6E65207072699A
:102130006E74696E672066696C6500534420657231
:10214000726F72206669786564005344206572720C
:102150006F7220646964206E6F74207265636F769D
:102160006572210053442052656164204572726F8C
:10217000720053442072656164206572726F720050
:102180007761697400466F726D6174206572726F59
:102190007200205200204A002049002050002053A5
:1021A00000204600204500205A00205900205800F9
:1021B000205072696E7465722073746F70706564FC
:1021C00020616E6420686561746572732064697350
:1021D00061626C65642064756520746F2074686941
:1021E00073206572726F722E204669782065727254
:1021F0006F7220616E6420726573746172742077EF
:10220000697468204D3939392E00666174616C3A01
:102210000000002110422063308440A550C660E7D2
:1022200070088129914AA16BB18CC1ADD1CEE1EF8B
:10223000F13112100273325222B5529442F772D623
:1022400062399318837BB35AA3BDD39CC3FFF3DEDB
:10225000E36224433420040114E664C774A4448573
:10226000546AA54BB528850995EEE5CFF5ACC58D2B
:10227000D55336722611163006D776F6669556B4C3
:10228000465BB77AA719973887DFF7FEE79DD7BC7B
:10229000C7C448E5588668A7784008611802282313
:1022A00038CCC9EDD98EE9AFF9488969990AA92BCB
:1022B000B9F55AD44AB77A966A711A500A333A1263
:1022C0002AFDDBDCCBBFFB9EEB799B588B3BBB1A1B
:1022D000ABA66C877CE44CC55C222C033C600C41B3
:1022E0001CAEED8FFDECCDCDDD2AAD0BBD688D496B
:1022F0009D977EB66ED55EF44E133E322E511E7003
:102300000E9FFFBEEFDDDFFCCF1BBF3AAF599F78BA
:102310008F8891A981CAB1EBA10CD12DC14EF16F6B
:10232000E18010A100C230E32004502540467067D0
:1023300060B9839893FBA3DAB33DC31CD37FE35EFC
:10234000F3B1029012F322D2323542145277625620
:1023500072EAB5CBA5A89589856EF54FE52CD50D0C
:10236000C5E234C324A01481046674476424540570
:1023700044DBA7FAB79987B8975FE77EF71DC73C9C
:10238000D7D326F2369106B01657667676154634C0
:10239000564CD96DC90EF92FE9C899E9898AB9ABAC
:1023A000A94458654806782768C018E1088238A310
:1023B000287DCB5CDB3FEB1EFBF98BD89BBBAB9A3C
:1023C000BB754A545A376A167AF10AD01AB32A9260
:1023D0003A2EFD0FED6CDD4DCDAABD8BADE89DC94C
:1023E0008D267C076C645C454CA23C832CE01CC1B0
:1023F0000C1FEF3EFF5DCF7CDF9BAFBABFD98FF8DC
:102400009F176E367E554E745E932EB23ED10EF0FF
:102410001E456E6453746F703A2564700053657482
:10242000205A206F66667365743A2554326D6D00CC
:102430005365742059206F66667365743A2554316C
:102440006D6D005365742058206F66667365743A2D
:102450002554306D6D00536574207072696E742060
:102460006F666673657473005A2D70726F626520B3
:102470006865696768743A257A68002544332033B3
:1024800020636F7069657300254432203220636FCA
:102490007069657300254431203120636F707900C5
:1024A000254430204E6F20636F7069657300255896
:1024B000352053656C65637420657874722E203600
:1024C000002558342053656C6563742065787472F8
:1024D0002E2035002558332053656C6563742065C4
:1024E0007874722E2034005475726E206578747280
:1024F0002E2036206F6666005475726E20657874E3
:10250000722E2035206F6666005475726E206578D5
:1025100074722E2034206F66660054656D702E2014
:1025200036203A2565352F25453502430054656D23
:10253000702E2035203A2565342F2545340243007E
:1025400054656D702E2034203A2565332F25453390
:10255000024300202542436D6D000525656302009E
:10256000052565632F254563020000256F7300254F
:102570005566206D207072696E746564002555661D
:10258000206D0025557400583A25783020593A2599
:102590007831004D756C3A20256F6D202020453A2A
:1025A000257834005A3A2578322020427566203A40
:1025B00020256F4200422565422F25456202000515
:1025C0002565632F25456302422565422F25456217
:1025D0000200256F73004275663A20256F42004D58
:1025E000756C3A20256F6D25252520FD202020457E
:1025F0003A202578346D00466C6F773AFD20256FC0
:10260000662525252020205A3A257832000E2025DF
:1026100065622F254562B020593A257831000A209D
:102620002565302F254530B020583A257830004CAC
:10263000616E677561676500437573746F6D3A25E8
:1026400042436D6D00437573746F6D00476C756523
:1026500020737469636B00477265656E2050455442
:10266000207461706500426C7565207061706572E0
:102670002074617065004B6170746F6E0042756903
:102680006C6454616B004E6F20636F6174696E6798
:10269000000042656420636F6174696E6720736532
:1026A0007420746F0042656420636F6174696E67A3
:1026B000005374616E646279004578747275646564
:1026C00072206A616D0074656D70657261747572F7
:1026D0006573202E2E2E005761697420666F72205C
:1026E000746172676574006578747275646572737D
:1026F0002E00436C69636B20746F2072656865619E
:10270000740049676E6F7265204D31303620636DFD
:10271000642025466900536572766F20706F732EB2
:102720003A20256F53004175746F6C6576656C3A7D
:1027300020256C6C00436C69636B207768656E20A4
:10274000646F6E650066696C616D656E742075708E
:102750002F646F776E00526F7461746520746F2000
:102760006D6F7665004368616E67652066696C61B0
:102770006D656E74004368616E67652066696C61A3
:102780006D656E74005A2062616279737465702E93
:102790003A256F596D6D0053746F70205072696ED9
:1027A0007400536C6F7742616E670044656164200A
:1027B00074696D650041545820706F776572206FA1
:1027C0006E2F6F6666007072696E7465640046698C
:1027D0006C616D656E74207072696E746564005012
:1027E00072696E74696E672074696D6500003A00E5
:1027F000206461797320005072696E746572207272
:10280000656164792E005344206361726420696EAF
:10281000736572746564005344206361726420724E
:10282000656D6F76656400576169742072657472B6
:102830002E3A255855206D6D0057616974207465D6
:102840006D702E202558540243004C6576656C202F
:1028500064656C74610043616C63756C61746520C0
:102860006C6576656C696E67005365742050330043
:1028700053657420503200536574205031005A2043
:1028800063616C69622E00536574205A3D300052BA
:1028900065736574206D6561732E0053686F7720D2
:1028A0006D6561732E00466C6F77206D756C2E2000
:1028B0003A256F66252525005370656564206D7582
:1028C0006C2E3A256F6D2525250020423A2565623C
:1028D0002F25456202437E256F620045333A256508
:1028E000322F25453202437E256F320045323A258C
:1028F00065312F25453102437E256F310045313A40
:102900002565302F25453002437E256F3000204558
:102910003A2565632F25456302437E256F430042B8
:1029200075666665723A256F420055706C6F61641A
:10293000696E672E2E2E006C6F6164656420662EB2
:1029400020454550524F4D00436F6E666967757262
:102950006174696F6E0073746F72656420696E20B4
:10296000454550524F4D00436F6E66696775726101
:1029700074696F6E0053746570706572206469735A
:1029800061626C6564004B696C6C656400486561EC
:1029900074696E67206265640048656174696E677A
:1029A00020657874727564657200416374696F6E36
:1029B0003A256C61005049440042616E6742616E85
:1029C0006700592D4F66667365743A25587900582B
:1029D0002D4F66667365743A255878005049442037
:1029E0004D61783A255844004472697665204D61FE
:1029F000783A25584D004472697665204D696E3AE3
:102A000025586D0050494420443A255864005049E7
:102A10004420493A25586900436F6E74726F6C20E8
:102A200050574D3A25584D004465616474696D6591
:102A30003A2558700050494420503A2558700043B8
:102A40006F6E74726F6C3A25586800416476616EDF
:102A5000636520717561643A25586100416476614F
:102A60006E6365206C696E3A25586C005374616220
:102A70002E54696D653A25587700416363656C3A59
:102A8000255841004D61782046523A25584600535A
:102A9000746172742046523A25586600537465700A
:102AA000732F4D4D3A255365004261756472617410
:102AB000653A256F630047656E6572616C005B6DFA
:102AC000696E5D20303D4F6666004469732E20615B
:102AD000667465723A20256970004D61782E206910
:102AE0006E616374697665005B6D696E5D20303D73
:102AF0004F6666004469732E2061667465723A20E1
:102B0000256973005374657070657220696E616326
:102B100074697665005365742066616E2066756C15
:102B20006C005365742066616E20373525252500BD
:102B30005365742066616E20353025252500536568
:102B4000742066616E203235252525005475726E1D
:102B50002066616E204F66660046616E2073706568
:102B600065643A2546732525250046616E207370FD
:102B7000656564004D696E3A25737A204D61783A37
:102B800025735A005A3A257832206D6D004D696ED2
:102B90003A257379204D61783A25735900593A25C1
:102BA0007831206D6D004D696E3A257378204D6146
:102BB000783A25735800583A257830206D6D004DCD
:102BC000696E3A25737A204D61783A25735A005A16
:102BD0003A257832206D6D004D696E3A2573792063
:102BE0004D61783A25735900593A257831206D6D39
:102BF000004D696E3A257378204D61783A257358F7
:102C000000583A257830206D6D003120636C69637F
:102C10006B203D2031206D6D00453A257833206DC5
:102C20006D00004D617820656E6473746F703A2595
:102C3000735A004D696E20656E6473746F703A2527
:102C4000737A005A3A257832206D6D00004D617814
:102C500020656E6473746F703A257359004D696E08
:102C600020656E6473746F703A25737900593A2544
:102C70007831206D6D00004D617820656E6473744D
:102C80006F703A257358004D696E20656E647374D9
:102C90006F703A25737800583A257830206D6D00B2
:102CA000004D617820656E6473746F703A25735AB5
:102CB000004D696E20656E6473746F703A25737A87
:102CC000005A3A257832206D6D2025647A25645AA1
:102CD00000004D617820656E6473746F703A2573DF
:102CE00059004D696E20656E6473746F703A257378
:102CF0007900593A257831206D6D20256479256455
:102D00005900004D617820656E6473746F703A25C8
:102D10007358004D696E20656E6473746F703A2548
:102D2000737800583A257830206D6D202564782519
:102D3000645800486F6D653A25665A00486F6D65A6
:102D4000205A3A25665A00486F6D6520593A256623
:102D50005900486F6D6520583A256658004D6178D6
:102D60003A25667A004D6178205A3A25667A004DF8
:102D7000617820593A256679004D617820583A25C6
:102D800066780046656564726174650044656C65CB
:102D900074652066696C65004D6F756E74206361A3
:102DA000726400556E6D6F756E742063617264009D
:102DB000436F6E74696E7565207072696E74005031
:102DC00061757365207072696E74005072696E74FB
:102DD0002066696C6500416E7469206F6F7A6500CA
:102DE0004D6F76652061667465723A254F61004DBE
:102DF000696E2E6469737420203A254F6400426125
:102E0000636B736C2E2020203A254F62005265744C
:102E1000726163742020203A254F7200254F3220C2
:102E20004F5053206661737400254F31204F50532B
:102E300020636C617373696300254F30204F5053DA
:102E4000206F6666004472792072756E3A2564645C
:102E5000004572726F7273203A25646500496E6690
:102E60006F2020203A256469004563686F20202088
:102E70003A25646F004C6F616420662E20454550F2
:102E8000524F4D0053746F726520746F204545504A
:102E9000524F4D00416363656C65726174696F6E7A
:102EA000005A2D4A65726B203A25614A004A6572C4
:102EB0006B2020203A25616A004D6F76653A2561C6
:102EC0005A004D6F7665205A203A25615A004D6FA1
:102ED00076652059203A256159004D6F7665205856
:102EE000203A256158005072696E743A25617A0063
:102EF0005072696E74205A3A25617A005072696E78
:102F00007420593A256179005072696E7420583ADC
:102F100025617800536574204F726967696E0025DA
:102F200058322053656C65637420657874722E2066
:102F300033002558312053656C65637420657874BF
:102F4000722E2032002558302053656C6563742042
:102F5000657874722E2031005475726E2065787415
:102F6000722E2033206F6666005475726E2065786D
:102F700074722E2032206F6666005475726E206562
:102F80007874722E2031206F66660054656D702E45
:102F90002033203A2565322F2545320243005465FF
:102FA0006D702E2032203A2565312F2545310243A0
:102FB0000054656D702E2031203A2565302F25454F
:102FC000300243004265642074656D703A25656285
:102FD0002F254562024300457874722E20706F736E
:102FE0006974696F6E005A20706F732E206661736A
:102FF00074005A20706F736974696F6E0059207085
:103000006F732E2066617374005920706F7369743A
:10301000696F6E005820706F732E206661737400A4
:103020005820706F736974696F6E004469736162D0
:103030006C652073746570706572005365742074DC
:103040006F206F726967696E00436F6F6C646F7792
:103050006E004C69676874733A256C6F0050726536
:1030600068656174204142530050726568656174FF
:1030700020504C4100486F6D65205A00486F6D65C7
:10308000205900486F6D65205800486F6D652061BC
:103090006C6C00486F6D652064656C7461004465FC
:1030A00062756767696E67005344206361726400EC
:1030B000457874727564657200506F736974696FD6
:1030C0006E00436F6E66696775726174696F6E003A
:1030D000256F6500517569636B2073657474696E43
:1030E0006773004261636B2001002A2A2A2A204567
:1030F00052524F52202A2A2A2A004E6F205344202F
:10310000636172640049646C65005072696E746931
:103110006E67005072696E74696E672E2E2E004EB7
:103120006F00596573004E2F41004F6666004F6E69
:10313000002E312A31263122311F3113310A310557
:1031400031FA30EA30E330D430D030C230B930B068
:1031500030A8309E3093308A3083307C30753069AF
:10316000305D30523049303B302B30203014300944
:1031700030FD2FF22FE62FD72FC42FB12F9E2F8B8C
:103180002F7A2F692F582F452F322F1F2F142F08DA
:103190002FFC2EF02EE62EDA2ECE2EC22EB92EAD1C
:1031A0002EA12E942E842E752E692E5D2E512E4525
:1031B0002E392E292E1C2E0D2EFE2DEF2DE02DD674
:1031C0002DCB2DBF2DB02DA32D982D8C2D832D799A
:1031D0002D6F2D652D5D2D522D472D3C2D332D232B
:1031E0002D132D032D022DF22CE22CD22CD12CC12B
:1031F0002CB12CA12CA02C972C872C772C762C6D05
:103200002C5D2C4D2C4C2C432C332C232C222C1994
:103210002C0A2C012CF12BE82BD82BCF2BBF2BB653
:103220002BA62B9D2B8D2B842B742B6A2B592B4C6F
:103230002B3E2B302B222B152B042BF42AE82ADAD9
:103240002ACA2ABE2AB62AA92A9C2A8F2A842A7A1E
:103250002A6C2A5C2A4B2A3F2A352A282A182A0E49
:103260002A042AF629E829DC29CF29C229B929B557
:1032700029AA2999298D2986297529672956294836
:103280002937292A291F290E29FD28EC28DB28CADD
:1032900028B828A6289B288F2887287E287728707A
:1032A00028692856284A283928272817280628F761
:1032B00027F027EE27ED27DF27CE27C627B527AB38
:1032C00027A227972785277527652756274527355E
:1032D00027262716270227F226E726D726C626B94D
:1032E00026B126A5269226912686267D2676266656
:1032F0002657264C26452638262F261E260D26F72D
:1033000025DF25D625D225BF25B525A425932587DC
:103310002583257D256F256B256A2560255A255334
:103320002540252D251A250925F824E724D424C174
:1033300024AE24A024952488247B24682456244386
:103340002430241D241124631000FF3131000000BB
:10335000000000000000000000000000000000006D
:1033600000000002536F66747761726520526573C6
:103370006574005761746368646F67205265736594
:10338000740042726F776E206F757420526573659A
:10339000740045787465726E616C20526573657453
:1033A00000506F7765725570000D0E486F6D652087
:1033B0006D61646500526570526170004D616368B3
:1033C000696E653A0056657220302E39322E39000A
:1033D00052657065746965720000000000000000AD
:1033E000000000000000000000000001FFFF0000DE
:1033F000000000078000FFFE00000038000000070A
:10340000800000C3E1F07F0FC000071F87C1FC3FB1
:10341000C00038FFFFFFF0FE4001C3FFFFFFC1FC0B
:10342000400F0000000007F0403FFFFF80001FE05A
:10343000403FFFFFFFFFFF80403FFFFFFFFFFF0018
:10344000403FFFFFFFFFFE004030000001FFFC0493
:10345000403000000000FC0C403000000000381C30
:10346000403000000000383E403000000000387E50
:103470004030FFFF800038FE4030FFFFF80038FE8C
:103480004030FFFFFE0038E64030FFFFFF0038E627
:103490004030FFFFFF8038C64030FFFFFF8038C656
:1034A0004030FFBFFF8038C44030FF80FFC038C4C9
:1034B0004030FF80FFC038C44030FF807FC038CC30
:1034C0004030FF807FC038FC4030FF807FC038F83C
:1034D0004030FF80FFC038F84030FFFFFFC038F0B9
:1034E0004030FFFFFF8038E04030FFFFFF8038E0D2
:1034F0004030FFFFFF0038C04030FFFFFE0038C003
:103500004030FFFFF00038C04030FF9FF00038C06F
:103510004030FF8FFC0038C04030FF87FC0038C0CF
:103520004030FF87FE0038C04030FF83FF0038C0C6
:103530008030FF83FF0038C08030FF81FF8038C1BA
:103540000030FF81FF8038C20030FF80FFC038822A
:103550000030FF80FFC038840030FF807FE03808F3
:1035600000307F807FE0380800300F803FE0381067
:10357000003000003FF038100038000003F0382021
:103580000038000000003840003C000000003840D7
:10359000003FF80000003980003FFFF800003D00C8
:1035A0000000FFFFF8007F00000007FFFFF87E002B
:1035B00000000007FFFFFC000000000003FFF80010
:1035C00000000000000DF8000000000000000000F6
:1035D00000000000000000000046726565205241B6
:1035E0004D3A00820000010047334E656564732048
:1035F0006C616E67756167652073656C656374697E
:103600006F6E0073746172740001060C00FE030299
:1036100029036300FF000AFE0800025767A800881C
:10362000008800A8025767F088E8A8E888F00257E9
:103630006770A8F8A8F8A87002576770880808088B
:10364000887012456560901090600158687088809D
:10365000808878080802576720202020A870200260
:103660006767F8FCFC9CFCFCF802576770F8F8A848
:10367000F8F870FFFFFFFFFFFFFF0355652040F8DC
:1036800040200257672070A8202020200355652085
:1036900010F8102002576720202020A87020045323
:1036A0006350F8500257672070A820A87020025974
:1036B00069C0F0E0A0201010080802596918783895
:1036C000282040408080025969808040402028386E
:1036D00078180259690808101020A0E0F0C00365AE
:1036E000652848FC50300365653028FC4850046369
:1036F00063C0D8640463630C6C980365652850FC50
:1037000050280258682070A870A820202003656502
:103710005028FC2850025868202020A870A870204B
:103720000365652448F0482403656590483C48904B
:103730000355652848F848280257672070A82020BC
:1037400020F8035565A090F890A0025767F8202054
:1037500020A870200257672070A820A870F8036581
:10376000652844F8402003656550887C081003658F
:1037700065204CFC482803656510C8FC485003646C
:103780006448DCEC480365650858FC6840025767EC
:103790008090B0D09038100258682040F84828082F
:1037A00008080258682010F890A0808080025868AD
:1037B0000808082848F840200257678080A090F841
:1037C0001020035464F0103810035565080848F8B9
:1037D00040035565304848E848035565609090B807
:1037E00010025868F880E0C0A0201010025969A0AB
:1037F000C0F8C0A818F818280256663830A888887B
:1038000070025666E060A88888700553632040F80F
:10381000035363F8402022386880C0A080808080F5
:10382000800238682060A0202020202005536320DB
:1038300010F8035363F8102022386880808080805D
:10384000A0C0800238682020202020A060200259DB
:10385000692010F8102040F8402002586850F050BD
:1038600050505078500259692040F8402010F8100C
:10387000200259692040F8402040F8402002586852
:1038800050F85050505050500259692010F81020F4
:1038900010F81020025868505050505050F8500204
:1038A00057672040F800F810200257672010F800F2
:1038B000F8402002676714287C907C2050026767DC
:1038C0000858FCA4FC6840026767A050F824F81070
:1038D0002803556520788078200257672050D850FB
:1038E00050505003556520F008F0200257675050A3
:1038F0005050D8502003656548FC84FC4802586845
:103900002050D85050D85020026666F8A0D0A89415
:10391000080266667C142C54A44002666640A454D7
:103920002C147C0266660894A8D0A0F80267671081
:103930003C40FC403C1002676720F008FC08F02087
:1039400003646440E8D440036464085CAC08025833
:10395000682070A8207020702002586820702070A5
:1039600020A870200365652040D4402002586820BC
:10397000708820002000200365651008AC08100244
:1039800058682000200020887020035565A0C0F8EA
:10399000C0A00355652818F81828035565207888B5
:1039A00078200258682050D8505050507003556508
:1039B00020F088F0200258687050505050D85020A5
:1039C0000259692050D85070007050700259692017
:1039D00050D8505050D888F80259692050F8885073
:1039E00050D888F80259692070F8707070F8A8F8FB
:1039F0000259692050D850D850505070025969204F
:103A000050D850D850D888F8035565A0F088F0A059
:103A1000025868F880B0A0901008080258688080AA
:103A20004048286808F80258682050D85050D850AC
:103A3000200365651068FC68100258685078505083
:103A40005050F05002596910F81010F81010F8108A
:103A50000365652848FC48280365655048FC4850C4
:103A60000365653078FC78300365653858FC583854
:103A70000365657068FC68700365653078FC7830B4
:103A80000355652060B860200355652030E830207C
:103A90000365653078B47830066666FCFCFCFCFC97
:103AA000FC006262FCFC006363FCFCFC006565FCDE
:103AB000FCFCFCFC006666FCFCFCFCFCFC00686892
:103AC000FCFCFCFCFCFCFCFC006969FCFCFCFCFC58
:103AD000FCFCFCFC006B6BFCFCFCFCFCFCFCFCFC44
:103AE000FCFC006C6CFCFCFCFCFCFCFCFCFCFCFC32
:103AF000FC005C6CF8F8F8F8F8F8F8F8F8F8F8F862
:103B0000004C6CF0F0F0F0F0F0F0F0F0F0F0F000BD
:103B10004C6CF0F0F0F0F0F0F0F0F0F0F0F0003C71
:103B20006CE0E0E0E0E0E0E0E0E0E0E0E0002C6C11
:103B3000C0C0C0C0C0C0C0C0C0C0C0C0002C6CC02D
:103B4000C0C0C0C0C0C0C0C0C0C0C0001C6C8080AD
:103B500080808080808080808080303C6CE0E0E0ED
:103B6000E0E0E0E0E0E0E0E0E0016B6BA8005400A2
:103B7000A8005400A80054006C6CA854A854A85481
:103B8000A854A854A854006C6C54FCA8FC54FCA87D
:103B9000FC54FCA8FC0A6262FCFC501C6C80808017
:103BA000808080808080808080003666E0E0E0E079
:103BB000E0E0303666E0E0E0E0E0E0063666E0E0D7
:103BC000E0E0E0E0006C6CE0E0E0E0E0E0FCFCFC69
:103BD000FCFCFC006C6CE0E0E0E0E0E01C1C1C1C69
:103BE0001C1C006C6CFCFCFCFCFCFCE0E0E0E0E07D
:103BF000E0006C6CFCFCFCFCFCFC1C1C1C1C1C1C7D
:103C0000363666E0E0E0E0E0E0006C6C1C1C1C1C5A
:103C10001C1CE0E0E0E0E0E0006C6C1C1C1C1C1CC8
:103C20001CFCFCFCFCFCFC025565F8F8F8F8F802FA
:103C30005565F8888888F80255657088888870020C
:103C40005565F888A888F8025565F888F888F8025C
:103C50005565F8A8A8A8F8025565F8A8F8A8F802CC
:103C60005565F8C8A898F8025565F898A8C8F802EC
:103C70005565F8D8A8D8F8143363E0E0E01433634E
:103C8000E0A0E0036565FCFCFCFCFC036565FC84CE
:103C90008484FC114A6AF0F0F0F0F0F0F0F0F0F0FB
:103CA000114A6AF09090909090909090F004636325
:103CB0003C78F00463633C48F00257672020707042
:103CC000F8F8F8025767202050508888F8035565A7
:103CD00020207070F803556520205050F812476777
:103CE00080C0E0F0E0C08012476780C0A090A0C014
:103CF0008013356580C0E0C08013356580C0A0C0EA
:103D000080036565C0F0FCF0C0036565C0B08CB091
:103D1000C0025767F8F8F870702020025767F888DB
:103D20008850502020025565F8707020200255659B
:103D3000F850502020124767103070F07030101289
:103D40004767103050905030101335652060E060A8
:103D5000201335652060A060200365650C3CFC3CA9
:103D60000C0365650C34C4340C0355652070F87081
:103D70002003556520508850200355652050A850D9
:103D8000200266663048B4B448300257672050506D
:103D90008850502002666630488484483002666647
:103DA00020088004401002556570A8A8A87002572A
:103DB000677088A8D8A888700266663078FCFC789E
:103DC000300266663068E4E4683002666630589C0B
:103DD0009C5830026666304884FC78300266663053
:103DE00078FC84483002666630589C84483002660D
:103DF000663068E484483012596908387878F87871
:103E000078380802596980E0F0F0F8F0F0E08000BE
:103E10006C6CFCFCFCFCCC8484CCFCFCFCFC006CDE
:103E20006CFCFCFCCCB47878B4CCFCFCFC0666667C
:103E3000FCFCFCCCB47800666678B4CCFCFCFC05D9
:103E40003363204080353363804020323363204029
:103E500080023363804020056363304884026363DB
:103E600084483002556508183878F802556580C0D6
:103E7000E0F0F8025565F8F0E0C080025565F8788A
:103E80003818080255657088888870025565F8E80A
:103E9000E8E8F8025565F8B8B8B8F8025565F8F8DA
:103EA000E8C8F8025565F898B8F8F8025565F8A81A
:103EB000A8A8F802576720205070A888F802576712
:103EC00020207070E8E8F802576720207070B8B8BA
:103ED000F802676730488484844830025565F8A842
:103EE000E888F8025565F888E8A8F8025565F8886A
:103EF000B8A8F8025565F8A8B888F802556570A802
:103F0000E888700255657088E8A870025565708869
:103F1000B8A87002556570A8B88870035565F89008
:103F2000A0C080035565F84828180803556580C06F
:103F3000A090F8144464F09090F0134464F0F0F012
:103F4000F0144464F09090F0144464F0F0F0F00346
:103F5000556508182848F800000000000000F1002E
:103F600000000000000000C400000000000000008D
:103F7000F00000000000000000C30000000000008E
:103F80000000EA0000000000000000E9000000005E
:103F900000000000E80000000000000000E7000052
:103FA000000000000000E60000000000000000E546
:103FB00000723F693F603F573FA83F9F3F963F8D4C
:103FC0003F843F7B3F0000000400B13F000000063B
:103FD00000B93F57726F6E6720636865636B7375D6
:103FE0006D00CC3FC53F00070A00FE07026903FBD6
:103FF00000FFFE08FE07FE050707060000A8008870
:10400000008800A80508080600000808082848F8E5
:10401000402003030306010440A0400505050600F7
:1040200000F8F8F8F8F8050505060000F888888813
:10403000F80508080600002050505070F8F8700786
:1040400005050900001CFE8282FE05080806000026
:10405000885020882050888806080806000048906C
:1040600048FCFC783030060808060000244824FC90
:10407000FC783030060505060000FCFC7830300680
:104080000202060000FCFC060606060000489048F6
:1040900090FCFC06060606000024482448FCFC07A9
:1040A00007070700008244382838448207070707BB
:1040B0000000101038EE381010FFFFFFFFFFFFFF69
:1040C000FFFFFFFFFFFFFFFFFF0000000605FF01EE
:1040D00007070602008080808080008003030306BB
:1040E0000104A0A0A00507070600005050F850F8F2
:1040F00050500507070600002070A07028702006A9
:10410000080806000044A4481020489488050707C2
:1041100006000040A0A040A8906801030306020426
:1041200080808003070706010020408080804020B7
:104130000307070601008040202020408005050578
:104140000600018850F8508805050506000120206A
:10415000F820200303030601FF60408004010106EC
:104160000103F00202020601FFC0C00507070600B6
:104170000008081020408080050707060000205036
:1041800088888850200507070600002060A02020AE
:1041900020F8050707060000708808304080F80501
:1041A0000707060000F808103008887005070706A2
:1041B000000010305090F81010050707060000F8B6
:1041C00080B0C8088870050707060000304080B03E
:1041D000C88870050707060000F808101020404046
:1041E0000507070600007088887088887005070733
:1041F0000600007088986808106002050506020134
:10420000C0C000C0C00307070601FF40E0400060D7
:104210004080040707060100102040804020100560
:104220000303060002F800F80407070601008040B7
:10423000201020408005070706000070881020200D
:104240000020050707060000708898A8B080700558
:10425000070706000020508888F8888805070706A9
:104260000000F04848704848F00507070600007055
:10427000888080808870050707060000F04848485D
:104280004848F0050707060000F88080F08080F8B5
:10429000050707060000F88080F08080800507078A
:1042A0000600007088808098887005070706000067
:1042B000888888F8888888030707060100E040405E
:1042C000404040E00507070600003810101010902D
:1042D000600507070600008890A0C0A09088050729
:1042E00007060000808080808080F80507070600B0
:1042F000008888D8A888888805070706000088886D
:10430000C8A89888880507070600007088888888EC
:104310008870050707060000F08888F08080800517
:1043200008080600FF7088888888A87008050707B5
:10433000060000F08888F0A09088050707060000B6
:1043400070888070088870050707060000F8202034
:104350002020202005070706000088888888888894
:104360007005070706000088888850505020050710
:1043700007060000888888A8A8D8880507070600CF
:104380000088885020508888050707060000888824
:104390005020202020050707060000F808102040C4
:1043A00080F8030707060100E08080808080E00538
:1043B0000707060000808040201008080307070652
:1043C0000100E02020202020E00503030600042057
:1043D00050880501010600FFF8020202060206806D
:1043E000400505050600007008788878050707066F
:1043F00000008080B0C888C8B005050506000070C0
:104400008880887005070706000008086898889863
:10441000680505050600007088F880700507070626
:104420000000304840F04040400507070600FE7895
:104430008888780888700507070600008080B0C863
:104440008888880307070601004000C0404040E01C
:104450000409090601FE100030101010909060054C
:10446000070706000080808890E090880307070611
:104470000100C04040404040E0050505060000D076
:10448000A8A8A888050505060000B0C88888880582
:10449000050506000070888888700507070600FE7D
:1044A000B0C888C8B080800507070600FE689888F5
:1044B00098680808050505060000B0C880808005DA
:1044C000050506000070807008F00507070600006B
:1044D0004040F040404830050505060000888888C7
:1044E00098680505050600008888505020050505D8
:1044F0000600008888A8A850050505060000885019
:104500002050880507070600FE888898680888708C
:10451000050505060000F8102040F804070706010D
:1045200000304020C0204030010707060200808094
:104530008080808080040707060100C02040304052
:1045400020C005030306000448A890FFFFFFFFFFFB
:10455000FFFFFFFFFFFFFFFFFFFFFFFFFFFFFFFF6B
:10456000FFFFFFFFFFFFFFFFFFFFFFFFFF01070749
:10457000060200800080808080800507070600FF1B
:104580002078A0A0A078200507070600003048404A
:10459000E04048B0050505060000887050708805A9
:1045A00008080600FF88885020F82020200107070F
:1045B000060200808080008080800508080600FFD9
:1045C0007080E09048380870030101060107A005DB
:1045D00007070600007088A8C8A8887004060606A9
:1045E00001017090B05000F0060505060000244857
:1045F000904824040202060102F010FF0507070696
:1046000000007088E8C8C88870050101060007F836
:1046100003030306010440A040050606060000202F
:1046200020F82020F804050506010360902040F0E2
:10463000040505060103E0106010E0020202060214
:10464000064080FF05070706000078E8E86828288C
:1046500028010101060203800202020602FE4080D8
:1046600003050506010340C04040E00406060601BC
:10467000016090906000F006050506000090482457
:1046800048900609090600FF40C04040E40C143C75
:10469000040609090600FF40C04040E81404081C55
:1046A0000509090600FFC0204020C8182878080521
:1046B0000707060000200020204088700508080633
:1046C00000004020708888F88888050808060000E7
:1046D0001020708888F88888050808060000205097
:1046E000708888F8888805080806000048B0708837
:1046F00088F888880508080600005000708888F847
:1047000088880508080600002050708888F8888886
:104710000607070600003C50909CF0909C05090994
:104720000600FE708880808088702040050808069A
:10473000000040F88080F08080F80508080600003E
:1047400010F88080F08080F805080806000020F846
:104750008080F08080F805080806000050F880800E
:10476000F08080F80308080601008040E0404040E7
:1047700040E00308080601002040E040404040E0DF
:1047800003080806010040A0E040404040E0030864
:1047900008060100A000E040404040E00507070691
:1047A0000000F04848E84848F005080806000028DE
:1047B0005088C8A89888880508080600004020701E
:1047C000888888887005080806000010207088888E
:1047D000888870050808060000205070888888883E
:1047E00070050808060000285070888888887005C1
:1047F0000808060000500070888888887005050544
:1048000006000088502050880507070600007098B1
:1048100098A8C8C870050808060000402088888845
:104820008888700508080600001020888888888815
:1048300070050808060000205000888888887005E8
:1048400008080600005000888888888870050808D5
:104850000600001020888850202020050707060049
:104860000080F088F08080800507070600007088CF
:1048700090A09088B005080806000040200070084D
:1048800078887805080806000010200070087888ED
:104890007805080806000020500070087888780520
:1048A0000808060000285000700878887805070777
:1048B0000600005000700878887805080806000097
:1048C00020502070087888780605050600007814C6
:1048D0007C907C0507070600FE7088808870204069
:1048E0000508080600004020007088F88070050860
:1048F000080600001020007088F88070050808067F
:1049000000002050007088F880700507070600003E
:1049100050007088F880700308080601008040008D
:10492000C0404040E0030808060100408000C0404D
:104930004040E003080806010040A000C04040409D
:10494000E0030707060100A000C0404040E0050763
:1049500007060000C03070888888700508080600C7
:1049600000285000B0C88888880508080600004064
:104970002000708888887005080806000010200054
:10498000708888887005080806000020500070882C
:1049900088887005080806000028500070888888FC
:1049A00070050707060000500070888888700505AC
:1049B000050600012000F800200505050600007826
:1049C00098A8C8F0050808060000402000888888DC
:1049D00098680508080600001020008888889868F4
:1049E0000508080600002050008888889868050798
:1049F00007060000500088888898680509090600A5
:104A0000FE1020888898680888700508080600FE4F
:104A100080F0888888F080800509090600FE500033
:104A20008888986808887000050700FF0602480318
:104A3000BA00FFFF08FF06FF050505050000A800F6
:104A40008800A80508080600000808082848F8405B
:104A50002003030306010440A040050505060000ED
:104A6000F8F8F8F8F8050505060000F8888888F8D1
:104A70000508080600002050505070F8F87007052F
:104A8000050900001CFE8282FE0508080600008859
:104A90005020882050888806080806000048904862
:104AA000FCFC783030060808060000244824FCFC92
:104AB000783030060505060000FCFC783030060230
:104AC00002060000FCFC060606060000489048901E
:104AD000FCFC06060606000024482448FCFC0707E8
:104AE0000707000082443828384482070707070078
:104AF00000101038EE381010FFFFFFFFFFFFFFFF20
:104B0000FFFFFFFFFFFFFFFF00000005040001069D
:104B100006050200808080800080030303050103F6
:104B2000A0A0A005050505000050F850F8500505A7
:104B30000505000070A070287004060605000080BE
:104B4000902040901004050505000040A040A050B2
:104B50000103030502038080800206060501004070
:104B60008080808040020606050100804040404071
:104B700080030505050100A040E040A005050505EE
:104B800000002020F820200303030501FF6040807F
:104B9000040101050002F0020202050100C0C00488
:104BA00004040500011020408003060605010040B2
:104BB000A0A0A0A04003060605010040C040404060
:104BC000E00406060500006090102040F004060690
:104BD000050000F01060109060040606050000203B
:104BE00060A0F02020040606050000F080E0109090
:104BF000600406060500006080E0909060040606F0
:104C0000050000F01020204040040606050000606A
:104C1000906090906004060605000060909070100F
:104C200060020505050100C0C000C0C003060605FE
:104C300000FF606000604080030505050100204022
:104C4000804020040303050001F000F00305050582
:104C50000100804020408003060605010040A0209E
:104C60004000400406060500006090B0B08060047B
:104C70000606050000609090F0909004060605007E
:104C800000E090E09090E00406060500006090804F
:104C9000809060040606050000E090909090E0048B
:104CA0000606050000F080E08080F004060605009E
:104CB00000F080E08080800406060500006090809F
:104CC000B090700406060500009090F0909090035C
:104CD0000606050100E040404040E00406060500ED
:104CE0000010101010906004060605000090A0C08F
:104CF000C0A0900406060500008080808080F0043B
:104D0000060605000090F0F090909004060605005D
:104D10000090D0D0B0B090040606050000609090DE
:104D2000909060040606050000E09090E08080040A
:104D300007070500FF60909090D0601004060605FC
:104D40000000E09090E0A09004060605000060904E
:104D500040209060030606050100E04040404040CE
:104D600004060605000090909090906004060605E9
:104D700000009090909060600406060500009090FE
:104D800090F0F0900406060500009090606090900E
:104D9000030606050100A0A0A04040400406060549
:104DA0000000F010204080F0030606050100E080BE
:104DB000808080E004040405000180402010030688
:104DC00006050100E020202020E003020205010486
:104DD00040A0040101050000F00202020501048068
:104DE000400404040500007090B05004060605005D
:104DF000008080E09090E003040405000060808063
:104E00006004060605000010107090907004040401
:104E100005000060B0C06004060605000020504098
:104E2000E040400405050500FF70906080700406B6
:104E3000060500008080E0909090030606050100C2
:104E40004000C04040E00307070501FF200020208C
:104E500020A0400406060500008080A0C0A09003AA
:104E60000606050100C040404040E004040405007F
:104E700000A0F09090040404050000E090909004DD
:104E80000404050000609090600405050500FFE043
:104E90009090E0800405050500FF7090907010046C
:104EA0000404050000E09080800404040500007004
:104EB000C030E00406060500004040E040403004F9
:104EC000040405000090909070030404050100A004
:104ED000A0A0400404040500009090F0F004040435
:104EE000050000906060900405050500FF9090505B
:104EF0002040040404050000F02040F003060605ED
:104F000001002040C04040200106060502008080CC
:104F1000808080800306060501008040604040805C
:104F200004020205000450A0FFFFFFFFFFFFFFFF88
:104F3000FFFFFFFFFFFFFFFFFFFFFFFFFFFFFFFF81
:104F4000FFFFFFFFFFFFFFFFFF0000000504000160
:104F500006060502008000808080800406060500A9
:104F6000FF2070A0A070200405050500003040E07F
:104F700040B00505050500008870507088030606DE
:104F8000050100A0A040E0404001050505020080A9
:104F9000800080800307070501FF6080C0A06020BB
:104FA000C0030101050105A00507070500FF708882
:104FB000A8C8A8887003030305000360A060050368
:104FC00003050001489048040202050001F01003A7
:104FD0000101050102E00507070500FF7088E8C828
:104FE000C88870040101050005F0030303050103EF
:104FF00040A0400506060500002020F82020F80209
:105000000404050102C04080C0020404050102C07E
:10501000C040C002020205010440800405050500ED
:10502000FF909090E08004060605000070D0D050FC
:105030005050020202050102C0C00202020501FF37
:10504000408003040405010240C040E0030303055F
:10505000000340A0400503030500019048900407A9
:10506000070500FF8080809030701004070705005E
:10507000FF808080B01020300407070500FFC0C00B
:1050800040D030701003060605010040004080A0AB
:1050900040040606050000609090F090900406061B
:1050A000050000609090F0909004060605000060F6
:1050B0009090F09090040606050000609090F090AB
:1050C00090040606050000906090F090900406069B
:1050D000050000606090F0909004060605000070E6
:1050E000A0B0E0A0B00407070500FF6090808090AA
:1050F0006040040606050000F080E08080F00406B1
:1051000006050000F080E08080F00406060500003F
:10511000F080E08080F0040606050000F080E0806A
:1051200080F0030606050100E040404040E0030631
:1051300006050100E040404040E00306060501008E
:10514000E040404040E0030606050100E0404040EA
:1051500040E0040606050000E050D05050E0040690
:1051600006050000B090D0B0B0900406060500001F
:10517000609090909060040606050000609090900A
:105180009060040606050000609090909060040610
:1051900006050000609090909060040606050000EF
:1051A000906090909060040404050000906060900E
:1051B00004060605000070B0B0D0D0E00406060575
:1051C000000090909090906004060605000090907A
:1051D000909090600406060500009090909090607A
:1051E00004060605000090009090906003060605F6
:1051F0000100A0A0A040404004060605000080E099
:1052000090E080800406060500006090A09090A0C9
:1052100004060605000040207090B0500406060504
:10522000000020407090B050040606050000205099
:105230007090B05004060605000050A07090B05069
:1052400004060605000050007090B05004060605E4
:10525000000060607090B05004040405000070B05D
:10526000A0700305050501FF60808060400406060C
:10527000050000402060B0C0600406060500002064
:105280004060B0C06004060605000040A060B0C0E9
:1052900060040606050000A00060B0C060030606BA
:1052A0000501008040C04040E003060605010040C3
:1052B00080C04040E003060605010040A0C0404019
:1052C000E0030606050100A000C04040E004060619
:1052D0000500004030609090600406060500005014
:1052E000A0E0909090040606050000402060909099
:1052F00060040606050000204060909060040606E9
:1053000005000060006090906004060605000050F3
:10531000A060909060040606050000500060909028
:10532000600405050500006000F000600404040549
:10533000000070B0D0E00406060500004020909008
:1053400090700406060500002040909090700406BE
:1053500006050000600090909070040606050000AD
:105360005000909090700407070500FF2040909037
:105370005020400406060500FF80E09090E0800485
:1053800007070500FF500090905020400000206467
:1053900065632000206465662000040003000000AF
:1053A000003FCDCC4C3D0AD7A33B6F12033A457268
:1053B000726F723A00494E46004E414E0050726F75
:1053C000746F636F6C2076657273696F6E206368AB
:1053D000616E6765642C20757067726164696E67C1
:1053E000005472616E73666F726D6174696F6E20C6
:1053F0006D61747269783A0053442063617264206D
:10540000696E7365727465640053442063617264ED
:105410002072656D6F76656400686F6D65417869AF
:105420007320004175746F6C6576656C696E6720DA
:1054300064697361626C6564004175746F6C657654
:10544000656C696E6720656E61626C6564004175AC
:10545000746F6C6576656C206D617472697820720A
:10546000657365740044697361626C696E6720617D
:105470006C6C206865617465727320647565207456
:105480006F2064657465637465642073656E736F03
:1054900072206465666563742E00206465672E2043
:1054A0004300206D656173757265642000457272FA
:1054B0006F723A436F756C64206E6F7420686F6C06
:1054C000642074656D70657261747572652000206A
:1054D0006D730020616674657220004572726F7290
:1054E0003A54656D702E2072616973656420746F23
:1054F00020736C6F772E2052697365203D20004F1A
:105500006E6520686561746572207365656D7320D2
:105510006465636F75706C65642066726F6D20746E
:105520006865726D6973746F72202D206469736190
:10553000626C696E6720616C6C20666F72207361AB
:1055400066657479210048656174657220646563DD
:105550006F75706C65640048656174656420626590
:1055600064206578636565646564206D6178207486
:10557000656D7065726174757265210020453A0031
:10558000205A3A0020593A00583A0020403A002068
:1055900042403A00205241570020423A00202F005A
:1055A000543A0053706565644D756C7469706C791C
:1055B0003A00466C6F774D756C7469706C793A007F
:1055C00046616E73706565643A00206D696E0020F7
:1055D000686F7572732000206461797320005072C7
:1055E000696E74696E672074696D653A006D20009C
:1055F0005072696E7465642066696C616D656E7465
:105600003A00FFD0FFE0FFCFFF64FFD1FF32380C3C
:10561000060201FF64FFD0FFFE0000FF0000000053
:10562000010100000000FF00007A5F6D696E3A0022
:105630004C2000482000795F6D61783A00785F6DFA
:10564000696E3A00656E6473746F70732068697474
:105650003A200044656275674C6576656C3A005087
:1056600072696E7465724D6F64653A434E430050C3
:1056700072696E7465724D6F64653A4C61736572E0
:10568000005072696E7465724D6F64653A464646A5
:1056900000446F6E6520736176696E672066696C81
:1056A000652E00436F6E6669673A00534420696E49
:1056B0006974206661696C0046696C652073656C6D
:1056C0006563746564002053697A653A0046696CC5
:1056D00065206F70656E65643A0066696C652E6F53
:1056E00070656E206661696C656400457874722E21
:1056F000004550523A3320004550523A322000457E
:1057000050523A3120004550523A30200053656CD7
:1057100065637445787472756465723A003A005432
:10572000617267657445787472000000210024007E
:1057300027002A002D003000330001010000040181
:1057400007010A0100002200250028002B002E007E
:105750003100340002010000050108010B010000C6
:1057600020002300260029002C002F003200000119
:1057700000000301060109010505050507050808E4
:105780000808020202020A0A0808040404040101CB
:1057900001010101010103030303030303030407E0
:1057A00007070C0C0C0C0C0C0C0C02020202060677
:1057B0000606060606060B0B0B0B0B0B0B0B01026A
:1057C0001020200808102040102040800201020113
:1057D00008040201010204081020408080402010CB
:1057E0000804020180040201804020100804020124
:1057F000080402010102040810204080010204088C
:105800001020408000000A0B02090C0D0E0807034F
:105810000401000000000000000000000000000083
:105820000000000000000000000000000000000078
:105830001211100000000000000000000000000035
:1058400000000000000000000000496E76616C69F5
:1058500064206172630052656C61746976652070C2
:105860006F736974696F6E696E67004162736F6C04
:1058700075746520706F736974696F6E696E670007
:10588000556E6B6E6F776E20636F6D6D616E643AEF
:1058900000496E666F3A00005344207072696E745E
:1058A0002073746F707065642062792075736572FF
:1058B0002E00004E414E494E495459494E46CDCCDA
:1058C000CC3D0AD7233C17B7D13877CC2B329595EE
:1058D000E6241FB14F0A000020410000C8420040EA
:1058E0001C4620BCBE4CCA1B0E5AAEC59D745FE55B
:1058F00011241FBECFEFD1E2DEBFCDBF00E00CBF51
:1059000013E0A0E0B2E0EEE2F9EE01E00BBF02C06E
:1059100007900D92A238B107D9F723E1A2E8B3E0CE
:1059200001C01D92A332B207E1F71CE2C8E7DCE236
:1059300000E006C021970109802FFE010E94F1EAD4
:10594000C737D10780E00807A9F70E94D6E50C9475
:1059500095F40C9400002F923F924F925F926F92B9
:105960007F928F929F92AF92BF92CF92DF92EF92EF
:10597000FF920F931F93CF93DF93CDB7DEB7CA5833
:10598000D1090FB6F894DEBF0FBECDBF8C01DC018C
:1059900016968D919C911797883C910511F40C9463
:1059A000BD3408F0FDC08335910509F4BEC408F08C
:1059B0008AC08A31910509F408C208F058C08531BF
:1059C000910509F4E0C108F03FC08330910510F45F
:1059D0000C941F448630910510F40C9402474497B0
:1059E00011F00C941F441E8E19A286E693E00E94CB
:1059F0002FA860E082E89CE00E943FA867E87CE076
:105A0000CE014E960E94F47B19821C82CE014E96E6
:105A10000E945DA81092C30383EC93E09AAF89AF14
:105A20008DE1FE017E96DE01119601900D928A9520
:105A3000E1F760E0CE0101960E94805B88E593E08B
:105A40000E942FA80C9402478731910509F4A3C145
:105A500008F49DC18831910509F4B3C1499711F04B
:105A60000C941F4480E00E942DE40C940247803285
:105A7000910509F4B0C280F48C31910509F4EFC1AD
:105A800008F4C5C18D31910511F40C9402474E976D
:105A900009F42DC20C941F448035910509F425C4E6
:105AA00028F48A9709F4DFC20C941F4481359105CC
:105AB00009F430C48235910511F00C941F44109202
:105AC00046100C9402478D36910509F4A0C530F5B7
:105AD0008336910509F4BCC460F48535910509F459
